:020000020000FC
:10000000E7C618951895A9C11895189518951895CB
:100010001895189518951895189518951895189578
:1000200000E00BB908E10AB906E800BD00E000BD38
:1000300003E309B900E20C830D830FEF0B83DE832A
:1000400001E50887DF8308950CB1AB81AF3F69F00C
:10005000A030A1F010910001A117C1F00D931F81F4
:10006000100F1F83AB83DE8319C70431E1F70E81C4
:100070000031C8F301E10F83A395F4CF013010F0F4
:100080000E3110F0AFEFEECF0D5FE8CF1F810117FB
:10009000C9F701E10E8304E20C83A1E00D911D91EB
:1000A000AB832885021701F100E20C830D830FEF6B
:1000B0000B83F4C6AC81A432B9F307D0EFC6A4E237
:1000C00005E10D93AC83188501E04A2F4452A395B6
:1000D000AD83A0E2AC8324E12D934D930D931D934A
:1000E0000FEF0B83DF830895AB810D91AB8300305D
:1000F00049F408C09D91AB83AC8100E80D939D93BA
:10010000AC833AC0003791F4FD91ED91AB83AC81A3
:1001100010EF1D939F2FF77096959695969521F069
:1001200001910D939A95E1F7AC8326C0013771F4E4
:10013000FD91ED919F2FF77096959695969521F0EC
:100140000D9101939A95E1F7AB8316C0023771F4D4
:10015000FD91ED910D911D912D91AB83F89430811E
:100160003023312B32273083789406C00F3709F4BF
:1001700047CEA0910001AB8300910001AB81A01795
:1001800008F4B3CF00910201188594CF30E0F1E07C
:10019000EAEBE22E24E001F0F590059030E00F1933
:1001A000100910F03395FBCF0F0D101DE21608F06B
:1001B0003D932A9589F70D9308951027E80364006D
:1001C0000A001FE213950456E8F71D930C591FE22D
:1001D00013950A50E8F71D93065C0D9308955F93FD
:1001E0004F93139FA001039F302D410D5D1F129F60
:1001F000300D411D5D1F109F310D4D1F5D1F8A0188
:100200004F915F910895EE24FF1841E1001F111FE7
:100210004A9509F40895EE1CFF1CE21AF30A20F433
:10022000E20EF31E8894F2CF0894F0CFDD24EE2482
:10023000FF1869E1001F111F221F6A9509F4089534
:10024000DD1CEE1CFF1CD31AE40AF50A28F4D30EB9
:10025000E41EF51E8894EECF0894ECCFFF1829E039
:10026000001F2A9511F400950895FF1CF11AC0F79C
:10027000F10EF6CF05900D920A95E1F70895E199F8
:10028000FECF8EBB9FBBE09A0DB38F5F9F4F08954B
:100290001F93E199FECF8EBB9FBB8F5F9F4FE09A6C
:1002A0001DB3101729F00DBBF894E29AE19A7894E7
:1002B0001F910895C0C1C4C406E806B900E000BF9C
:1002C00002E00C8702E20B87F2E0E6EB049107B94B
:1002D000369AE89430F8A8E410E800E00D931D93F6
:1002E000AE34E0F3089584B195B17C856B8561509F
:1002F00078F462E20C85015020F402E0689430F852
:1003000031F80C87F2E0E4EBE00FFD1F049107B930
:10031000369A6B8709851A85080F191F623218F003
:10032000D987DA8705C0673010F409871A87BAC5FC
:10033000A8E4A70FA70F2D913D91AA50000F111F00
:10034000000F111F000F111F4ADF000F111F10F4C3
:100350001FEF0FEF0D931D93A5C52FB60F931F939E
:100360001EEF552039F400917400003011F000E0C8
:1003700005BD62C0052D57FE22C0007399F433FC01
:100380008D9A33FE8C9A00E1500E60FE09C01CE38A
:1003900006E00A95F1F733FC8D9833FE8C9807C080
:1003A0001CE34AC033FC8D9833FE8C981CE06694A5
:1003B000052D0F70015009F00068502E3DC056FE0B
:1003C00025C0007379F433FC8D9A33FE8C9A00E1DA
:1003D000500E1CE008E00A95F1F733FC8D9833FECF
:1003E0008C982AC014E40FE76022E89433FE03C01F
:1003F0008599689402C08499689467F8052D0F70F8
:10040000015011F066940064502E16C05A940430C6
:1004100040F033FC8D9A33FE8C9A0FEF602E18EC6F
:100420000BC0033031F433FC8D9833FE8C9818E206
:1004300003C00230E1F3F3CF04B5010F03BD1F91F8
:100440000F912FBE1895AD89AA2311F06C92DD8B08
:10045000EA89FB890591003071F01591612E502ECB
:10046000083411F41D8B04C0143411F408E00C8B13
:10047000EA8BFB8B1BC5A4E60D911D914D912D912F
:100480003C91A0E633FEA2E65D916D914A3A19F4E3
:100490000217130729F0615088F460E05BE40EC096
:1004A00002951295107F0F70012B095C093108F439
:1004B00009E1053A08F005EA502F6FE06E935E936C
:1004C00008E03026A1E633FEA3E61C91F4E0EAEF53
:1004D00007E0163060F6F4E0ECEDC9CF060088CCFA
:1004E000884E88AA88008800060088CC884E88AA92
:1004F00088008800060088CC8844060088CC8844A0
:10050000060088CC88BE486448654866060088CCEA
:1005100088BE48674868000002E003BF089501E014
:1005200008BF0E81039529F00E83083011F40FEFF8
:100530000B834FD1788189819A817F5F8F4F9F4F45
:10054000788389839A837F3119F436D3C2D393C4D5
:100550007F3379F460D1552029F40C89015010F0D3
:100560000C8B02C002E005BD89818F7009F4F4D2C2
:1005700082C47F35C9F40BA51AA12BA1122B09F057
:1005800008E0015078F40091400110914101209160
:10059000A7003091A8003A952017310710F0689411
:1005A00034F800E00BA767C47F37A9F40CA500302E
:1005B00089F40091AD00015010F475D200E0009371
:1005C000AD007BD20091AE00015010F488D200E063
:1005D0000093AE0050C47F3909F041C0803051F41F
:1005E0000091A500015020F408E20093A40006E366
:1005F0000093A5008981803031F40091A60001505C
:1006000010F00093A600009142011091430133E0E5
:1006100020E2E5DDF0E0EFEA3AD0009144011091EC
:10062000450135E02CEDDBDDF0E0E5EB30D000916D
:100630004001109141012091A7003091A800201B9A
:10064000310B10F430E020E012E000E8C8DD0230A9
:100650001D0708F400E0F0E0E2EB19D00CC47F7352
:10066000773019F4E89430F806C47F71733041F4A0
:10067000E8940989015010F0098B689432F8FBC3A3
:100680007F70713019F434D0E3D1F5C3F4C32191F4
:10069000319140810217130709F449E0415040832A
:1006A00020F448E0408312930293089522F0220040
:1006B00024D026502620067006F0221026F0267040
:1006C00026B006E000F026C004F004B002F026A038
:1006D00006A000A022C000E004E022E022B0243006
:1006E00006C000B00010040000402250000004804A
:1006F0001D852E853F85AAE54D915D917C9106B3C0
:100700000F6C0095011709F475E0715010F07C939F
:10071000012F702F70957123E888E72AE88A1095D9
:10072000102321F073E0798B5CEA46E9212B312B11
:100730002E870D87007331F04A9521F4302B49E163
:100740005695450F3F875E934E93C398C498BD9AC4
:10075000BC9AA0E50C910370015008F402E00D93DF
:10076000000FA00F0D911C9132FC116020E1C49884
:1007700017FFC59817FDC59A000F111FC49A2A9537
:10078000B1F7C39AC498C598BD98BC98C49AC59A45
:100790000895A7E530E020E558E040E478E060E126
:1007A000ED918D919D91A1E5E7FBEE0FF0E0E45511
:1007B000F94F059115910EF40860020F131F0D9368
:1007C0001D93A73528F4E82F892F9A01AB01ECCFB0
:1007D0000895188D1F71E89400E09D9901E00127AC
:1007E000017021F0125018F4109510FB1E61188F43
:1007F000198D0881037019F4139519F0198F0EF0F3
:1008000008950B8D015008F40A8D0B8FA0E8A00FFE
:100810001C93D98F0895A0E80A8D30E020E01D9147
:10082000103071F0210F3D1F0150C8F72093A00038
:100830003093A10013EF07E6E6DCF0E0E8EB27CF0A
:10084000D093A000D093A10010E000E0F0E0E8EB2E
:100850001ECFD8A3D9A316EA05E60C8F1D8F16E983
:1008600001E00E8F1F8FA9E610E000EA1D930D93A3
:100870001FE90FEF1D930D9311E000E91D930D93F8
:100880001FE70FEF1D930D9310E00DE01D930D93E7
:100890001AEF00E01D930D9310E004E01D930D93FB
:1008A0001FE70FEF1D930D9303E00093A50004EBEA
:1008B0000093A40008955D914D91E894681B790B15
:1008C00028F46894709560956F5F7F4F579F9001F3
:1008D000569F102D210D3D1F749F100D211D3D1F92
:1008E000649F110D2D1F3D1F20333D0710F020E3A5
:1008F00010E0302F0EF4309530FF04C02095109595
:100900001F5F2F4F0895D7DFF22EE12E7D916C915E
:100910008C939E93AE5FCFDF1E0D2F1D2D931D93E5
:100920000895E89431F8009142011091430133EDAC
:1009300023E30217130718F00BE60093A6000091BB
:10094000A4000150E0F01AA12BA1122BA9F40093EE
:10095000A400002389F4009140011091410122EE8E
:1009600000391207E89418F41AEF00E06894009335
:10097000A7001093A80034F810E000E05DC00EA1BD
:10098000015010F00EA35AC00091A6000D1352C0E2
:10099000A9E680914201909143016C8D7D8D00E02C
:1009A000B2DF6C8D7D8D0FEF6F3F700729F4A25081
:1009B0002FE71FEF2D931D938091400190914101EE
:1009C0006E8D7F8D01E09FDF6E8D7F8D0FEF6F3F0E
:1009D000700729F4A2502FE71FEF2D931D93AFE668
:1009E0003D912C9142E050E0A95F1D910C910217BE
:1009F000130714F49801452F5150B0F70FE72F3F1C
:100A00003007E1F017E000E0201731070CF0980103
:100A100019EF00E0201731070CF4980108A119A183
:100A2000020F131F28F437FD07C01FEF0FEF04C09C
:100A300037FF02C010E000E008A319A301C0089529
:100A400008A119A131E020EDCADB0CA31DA3089574
:100A50000AA11BA12CA13DA12017310719F118F003
:100A60000F5F1F4F02C0015010400AA31BA30D17B8
:100A70001D0721F4DFBDDEBDC19A089521E00F3CC2
:100A8000120720F0DFBDDEBDC1980895065F1F4F3D
:100A90001BBD0ABD11E004EE17BD06BD02EC0FBD83
:100AA00009E10EBD089519A900E031E52CEE97DBB0
:100AB000005010470C8F1D8F08950091A7001091D2
:100AC000A80034E028E18BDB4091AA00049F90014C
:100AD000149F300D2093AB003093AC00089500912B
:100AE000AB001091AC00B80114E004EA409162013F
:100AF0004A5508F440E04E3108F04EE1049F900161
:100B0000149F300D1FE80CE5021B130B2091A7006A
:100B10003091A80064DB6017710708F0B8010091FC
:100B2000A7001091A800061B170B2E8D3F8D021BEE
:100B3000130B38F44EEF043D14074CF41EEF04ED94
:100B400006C041E00C32140714F011E00CE2200F53
:100B5000311F2E8F3F8F089508A9015010F008AB68
:100B600008959FA5C0990FC035FC05C009A1053F98
:100B700020F09450F8F490E01DC093959237D0F097
:100B8000C09A90E017C035FC13C00091AF001091DF
:100B9000B00021E0023C120758F021E00A3E1207A3
:100BA00020F0915038F490E005C09395923710F002
:100BB000C09890E09FA708959F858E857D856DA53F
:100BC0005EA536FE05C0707311F4E89436F863C074
:100BD00085FF74FFDCAB663098F585FF0FC074FFAE
:100BE00003C050EF46E002C05CE344E0639562302E
:100BF00009F463E0641708F060E04DC084FF13C09F
:100C000075FF0FC0C09B02C0C09801C0C09A06E526
:100C100008AB15E00091A6000D1310E01093A6009C
:100C20003AC050E0E2CF94FF0AC00CA903950CAB88
:100C30000A3028F0689436F866E050E02CC02BC0EB
:100C400095FF1EC0663039F409A90395073908F0ED
:100C500000E009AB20C0673049F40AA903951BA93D
:100C60001250101708F400E00AAB15C0683039F4D0
:100C70000BA90395043210F00AA90E5F0BAB0BC051
:100C800084FF01C008C094FF06C013D15CE36894E0
:100C900036F860E000C06DA75EA7DE87DF870895A5
:100CA000A7E52FEF239504561040E0F70C592D933C
:100CB0001FEF13950A50E8F71D93065F0C930895F4
:100CC000A7E503C0A9E501C0A8E50C9100680C9355
:100CD0000895998108A119A10F3F010709F49FEF19
:100CE0008DA58A3008F008957EA5715058F049F41A
:100CF0007CE38395823009F483E0843008F080E05F
:100D00008DA77EA7803041F40091AF001091B00014
:100D1000C7DF91FDD9DF3DCD813039F40091B200BC
:100D20001091B300BDDFD1DFF4CF823031F40091F8
:100D3000B8001091B900B4DF2CCD9981833091F4C3
:100D4000009160017091610166E1075310F46DE15B
:100D50000195A7E591FF03C0703009F460E26D933F
:100D6000A7DF17CD843031F4009162011091630147
:100D700061E2EBCF853039F40091B5001091B600F7
:100D80008FDFA3DF06CD91FF06C0A7E500E20D933C
:100D90000D930D93FECC863041F411E002EC29A9AD
:100DA000020F1D1F7DDF90DFF4CC873031F40AA9DC
:100DB00015E1A7E51D937CDFECCC883019F40BA975
:100DC00011E1F7CFA7E50DE10D930D930D93E1CC64
:100DD0000BE007BB0EE308BB00E004BB0CE005BB67
:100DE00000E001BB0CEC02BB04E00EBF0FE50DBF41
:100DF000D0E0C0E6B1E0A0E0F0E0E0E6D193F23070
:100E0000E8F3D0E0C0E6B1E0A0E03324442421DDE3
:100E100053DA82DB05D98D9895988C98949800E0E8
:100E200005BD09B7006809BF0CED0A8B04E00B8B08
:100E30000FE00C8B55246624A0E60BE40D93DD93A4
:100E40000D93DD9315E80BE6AAE40D931D931CE7C3
:100E500007ECACE40D931D930DE00A8F0DE20EA795
:100E600038D0789400E20093AA0002E40093A9002D
:100E700008B700FD54CBAC811D81A11769F05D9BC3
:100E80000DC00D91A11709F40F810CB9AC831F811E
:100E9000100F1F835E9A02C05F99D6C830FC02C053
:100EA000369B21CA0C89052909F4CDCA31FC39DDEC
:100EB000DFCF05EA702F90E080E0EAD909A9700F32
:100EC000E7D90AA9700FE4D90BA9700FE1D9072F50
:100ED000DFC990E080E0D3D9053A71F4702FCFD903
:100EE000700F09ABCCD9700F0AABC9D9700F0BAB1F
:100EF000C6D9071709F4089507E409AB07E00AAB60
:060F00000AE00BABD6CFA6
:00000001FF
