:020000020000FC
:1000000000C718951895B1C11895189518951895A9
:100010001895189518951895189518951895189578
:1000200000E00BB908E10AB906E800BD00E000BD38
:1000300003E309B900E20C830D830FEF0B83DE832A
:1000400001E50887DF8308950CB1AB81AF3F69F00C
:10005000A030A1F010910001A117C1F00D931F81F4
:10006000100F1F83AB83DE8331C70431E1F70E81AC
:100070000031C8F301E10F83A395F4CF013010F0F4
:100080000E3110F0AFEFEECF0D5FE8CF1F810117FB
:10009000C9F701E10E8304E20C83A1E00D911D91EB
:1000A000AB832885021701F100E20C830D830FEF6B
:1000B0000B830CC7AC81A432B9F307D007C7A4E205
:1000C00005E10D93AC83188501E04A2F4452A395B6
:1000D000AD83A0E2AC8324E12D934D930D931D934A
:1000E0000FEF0B83DF830895AB810D91AB8300305D
:1000F00049F408C09D91AB83AC8100E80D939D93BA
:10010000AC833AC0003791F4FD91ED91AB83AC81A3
:1001100010EF1D939F2FF77096959695969521F069
:1001200001910D939A95E1F7AC8326C0013771F4E4
:10013000FD91ED919F2FF77096959695969521F0EC
:100140000D9101939A95E1F7AB8316C0023771F4D4
:10015000FD91ED910D911D912D91AB83F89430811E
:100160003023312B32273083789406C00F3709F4BF
:1001700047CEA0910001AB8300910001AB81A01795
:1001800008F4B3CF00910201188594CF30E0F1E07C
:10019000EAEBE22E24E001F0F590059030E00F1933
:1001A000100910F03395FBCF0F0D101DE21608F06B
:1001B0003D932A9589F70D9308951027E80364006D
:1001C0000A001FEF13950A50E8F71D93065F0D9381
:1001D00008951FE213950456E8F71D930C591FE28A
:1001E00013950A50E8F71D93065C0D9308955F93ED
:1001F0004F93139FA001039F302D410D5D1F129F50
:10020000300D411D5D1F109F310D4D1F5D1F8A0177
:100210004F915F910895EE24FF1841E1001F111FD7
:100220004A9509F40895EE1CFF1CE21AF30A20F423
:10023000E20EF31E8894F2CF0894F0CFDD24EE2472
:10024000FF1869E1001F111F221F6A9509F4089524
:10025000DD1CEE1CFF1CD31AE40AF50A28F4D30EA9
:10026000E41EF51E8894EECF0894ECCFFF1829E029
:10027000001F2A9511F400950895FF1CF11AC0F78C
:10028000F10EF6CF05900D920A95E1F70895E199E8
:10029000FECF8EBB9FBBE09A0DB38F5F9F4F08953B
:1002A0001F93E199FECF8EBB9FBB8F5F9F4FE09A5C
:1002B0001DB3101729F00DBBF894E29AE19A7894D7
:1002C0001F910895C0C1C4C406E806B900E000BF8C
:1002D00002E00C8702E20B87F2E0E6EC049107B93A
:1002E000369AE89430F8A8E410E800E00D931D93E6
:1002F000AE34E0F3089584B195B17C856B8561508F
:1003000078F462E20C85015020F402E0689430F841
:1003100031F80C87F2E0E4ECE00FFD1F049107B91F
:10032000369A6B8709851A85080F191F623218F0F3
:10033000D987DA8705C0673010F409871A87CAC5DC
:10034000A8E4A70FA70F2D913D91AA50000F111FF0
:10035000000F111F000F111F4ADF000F111F10F4B3
:100360001FEF0FEF0D931D93B5C52FB60F931F937E
:100370001EEF552039F400917400003011F000E0B8
:1003800005BD62C0052D57FE22C0007399F433FCF1
:100390008D9A33FE8C9A00E1500E60FE09C01CE37A
:1003A00006E00A95F1F733FC8D9833FE8C9807C070
:1003B0001CE34AC033FC8D9833FE8C981CE0669495
:1003C000052D0F70015009F00068502E3DC056FEFB
:1003D00025C0007379F433FC8D9A33FE8C9A00E1CA
:1003E000500E1CE008E00A95F1F733FC8D9833FEBF
:1003F0008C982AC014E40FE76022E89433FE03C00F
:100400008599689402C08499689467F8052D0F70E7
:10041000015011F066940064502E16C05A940430B6
:1004200040F033FC8D9A33FE8C9A0FEF602E18EC5F
:100430000BC0033031F433FC8D9833FE8C9818E2F6
:1004400003C00230E1F3F3CF04B5010F03BD1F91E8
:100450000F912FBE1895AD89AA2311F06C92DD8BF8
:10046000EA89FB890591003071F01591612E502EBB
:10047000083411F41D8B04C0143411F408E00C8B03
:10048000EA8BFB8B2BC5A4E60D911D914D912D910F
:100490003C91A0E633FEA2E65D916D914A3A19F4D3
:1004A0000217130729F0615088F460E05BE40EC086
:1004B00002951295107F0F70012B095C093108F429
:1004C00009E1053A08F005EA502F6FE06E935E935C
:1004D00008E03026A1E633FEA3E61C91F5E0EAE051
:1004E00007E0163060F6F4E0ECEEC9CF060088CCE9
:1004F000884E88AA88008800060088CC884E88AA82
:1005000088008800060088CC8844060088CC88448F
:10051000060088CC88BE486448654866060088CCDA
:1005200088BE48674868000002E003BF089501E004
:1005300008BF0E81039529F00E83083011F40FEFE8
:100540000B83F5D1788189819A817F5F8F4F9F4F8F
:10055000788389839A837F3119F4B4D0E0D0A3C41F
:100560007F3379F406D2552029F40C89015010F01C
:100570000C8B02C002E005BD89818F7009F411D493
:1005800092C47F35E9F48981837009F4CFD30BA538
:100590001AA12BA1122B09F008E0015078F4009168
:1005A0004001109141012091A7003091A8003A9597
:1005B0002017310710F0689434F800E00BA773C4DB
:1005C0007F37A9F40CA5003089F40091AD000150EB
:1005D00010F41BD300E00093AD003ED30091AE00B9
:1005E000015010F44BD300E00093AE005CC47F399F
:1005F00009F041C0803051F40091A500015020F471
:1006000008E20093A40006E30093A50089818030EE
:1006100031F40091A600015010F00093A600009163
:1006200042011091430133E020E2E1DDF0E0EFEA26
:100630003AD0009144011091450135E02CEDD7DD11
:10064000F0E0E5EB30D000914001109141012091A4
:10065000A7003091A800201B310B10F430E020E0FF
:1006600012E000E8C4DD02301D0708F400E0F0E00D
:10067000E2EB19D018C47F73773019F4E89430F89E
:1006800012C47F71733041F4E8940989015010F06D
:10069000098B689432F807C47F70713019F4D6D092
:1006A00089D201C400C421913191408102171307FE
:1006B00009F449E04150408320F448E0408312931C
:1006C000029308959F858E857D856DA55EA585FF26
:1006D0000CC074FF03C050EF46E002C05CE344E08E
:1006E0006395641708F060E015C084FF13C075FFC0
:1006F0000FC0C09B02C0C09801C0C09A06E508ABFD
:1007000015E00091A6000D1310E01093A60002C0A2
:1007100050E0E5CF6DA75EA7DE87DF87089599815A
:1007200008A119A10F3F010709F49FEF8DA58A3099
:1007300008F008957EA5715040F031F47CE3839574
:10074000843008F080E08DA77EA7803089F4009186
:10075000AF001091B00016950795A7E522E030E2B2
:1007600015DD91FF04C0A8E50C9100680C93BFC093
:10077000813069F40091B2001091B300A7E522E046
:1007800030E204DDA9E50C9100680C93EACF8230D9
:1007900049F40091B8001091B900A7E522E030E2D9
:1007A000F5DCA5C08330D1F40091600110916101A6
:1007B00020E030E0103009F430E846E1075310F44F
:1007C0004DE10195A7E54D93FCDCA7E50C91022BCB
:1007D0000C93A9E50C91032B0C9389C0843031F460
:1007E000009162011091630120E8E3CF853061F44C
:1007F0000091B5001091B60016950795A7E522E087
:1008000030E2C4DCA7E5BFCF089522F0220024D057
:1008100026502620067006F0221026F0267026B0FC
:1008200006E000F026C004F004B002F026A006A006
:1008300000A022C000E004E022E022B0243006C084
:1008400000B0001004000040225000001D852E85DD
:100850003F85AAE54D915D917C9106B30F6C0095A3
:10086000011709F475E0715010F07C93012F702F7F
:1008700070957123E888E72AE88A1095102321F003
:1008800073E0798B5CEA46E9212B312B2E870D87AB
:10089000007331F04A9521F4302B49E15695450F0C
:1008A0003F875E934E93C398C498BD9ABC9AA0E5C7
:1008B0000C910370015008F402E00D93000FA00F9B
:1008C0000D911C9132FC116020E1C49817FFC5986E
:1008D00017FDC59A000F111FC49A2A95B1F7C39A44
:1008E000C498C598BD98BC98C49AC59A0895A7E5C0
:1008F00030E020E558E040E478E060E1ED918D9152
:100900009D91A1E5E7FBEE0FF0E0E65FF74F059163
:1009100015910EF40860020F131F0D931D93A73558
:1009200028F4E82F892F9A01AB01ECCF0895188D98
:100930001F71E89400E09D9901E00127017021F00A
:10094000125018F4109510FB1E61188F198D088134
:10095000037019F4139519F0198F0EF008950B8D8B
:10096000015008F40A8D0B8FA0E8A00F1C93D98FBB
:100970000895A0E80A8D30E020E01D91103071F05C
:10098000210F3D1F0150C8F72093A0003093A10014
:1009900013EF07E640DCF0E0E8EB85CED093A00053
:1009A000D093A10010E000E0F0E0E8EB7CCED8A30B
:1009B000D9A316EA05E60C8F1D8F16E901E00E8F0C
:1009C0001F8FA9E610E000EA1D930D931FE90FEFBA
:1009D0001D930D9311E000E91D930D931FE70FEF99
:1009E0001D930D9310E00DE01D930D931AEF00E0A1
:1009F0001D930D9310E004E01D930D931FE70FEF7F
:100A00001D930D9303E00093A50004EB0093A40055
:100A100008955D914D91E894681B790B28F46894D2
:100A2000709560956F5F7F4F579F9001569F102D77
:100A3000210D3D1F749F100D211D3D1F649F110D41
:100A40002D1F3D1F20333D0710F020E310E0302F15
:100A50000EF4309530FF04C0209510951F5F2F4F86
:100A60000895D7DFF22EE12E7D916C918C939E93A9
:100A7000AE5FCFDF1E0D2F1D2D931D930895E894BB
:100A800031F8009142011091430133ED23E3021745
:100A9000130718F00BE60093A6000091A400015084
:100AA000E0F01AA12BA1122BA9F40093A4000023BB
:100AB00089F4009140011091410122EE00391207A2
:100AC000E89418F41AEF00E068940093A7001093DC
:100AD000A80034F810E000E061C00EA1015010F051
:100AE0000EA35EC00091A6000D1356C0A9E680912A
:100AF0004201909143016C8D7D8D35FC02C0645A9A
:100B0000784000E0AEDF6C8D7D8D0FEF6F3F70079A
:100B100029F4A2502FE71FEF2D931D9380914001E0
:100B2000909141016E8D7F8D01E09BDF6E8D7F8DF9
:100B30000FEF6F3F700729F4A2502FE71FEF2D939F
:100B40001D93AFE63D912C9142E050E0A95F1D91CD
:100B50000C910217130714F49801452F5150B0F768
:100B60000FE72F3F3007E1F017E000E020173107D3
:100B70000CF0980119EF00E0201731070CF49801F0
:100B800008A119A1020F131F28F437FD07C01FEF9A
:100B90000FEF04C037FF02C010E000E008A319A364
:100BA00001C0089508A119A131E020ED20DB0CA3BC
:100BB0001DA308950AA11BA12CA13DA12017310757
:100BC00019F118F00F5F1F4F02C0015010400AA327
:100BD0001BA30D171D0721F4DFBDDEBDC19A0895CB
:100BE00021E00F3C120720F0DFBDDEBDC198089563
:100BF000065F1F4F1BBD0ABD11E004EE17BD06BD09
:100C000002EC0FBD09E10EBD08951091A90000E0AE
:100C100016950795005012493AEA26EBE8DA000FDC
:100C2000111F209160012D3208F42DE22F3508F0BC
:100C30002FE52D523DED239F120E120E16940794B0
:100C400016940794169407943FEF2FEF201931095B
:100C5000CEDA0C8F1D8F08950091A7001091A80087
:100C600034E028E1C4DA4091AA00049F9001149F67
:100C7000300D2093AB003093AC00089500914201F9
:100C8000109143012C8D3D8D2A593940021B130BC5
:100C900010F410E000E02EE00A3B120710F01EE016
:100CA0000AEB41E1049F9001149F300D209530958F
:100CB0000091AB001091AC009ADAB80114E004EA9C
:100CC000409162014A5508F440E04E3108F04EE18F
:100CD000049F9001149F300D1FE80CE5021B130BBD
:100CE0002091A7003091A80082DA6017710708F000
:100CF000B8010091A7001091A800061B170B2E8DBC
:100D00003F8D021B130B38F44EEF043D14074CF4D7
:100D10001EEF04ED06C041E00C32140714F011E0A0
:100D20000CE2200F311F2E8F3F8F08954FA158A541
:100D3000009142011091430135FE1FC0E8943CE848
:100D400020ED29A73AA72C8D3D8D2D5C344002174C
:100D5000130740F04F5F5F4F38E24B33530750F0BB
:100D600035F806C009810C7029F44150504010F448
:100D700050E040E04FA358A708956894298120309F
:100D800039F429A53AA52150304050F329A73AA7B4
:100D900029E90A39120730F74F5F5F4F3BE14E33C5
:100DA000DDCF08A9015010F008AB08959FA5C099A8
:100DB0000FC035FC05C009A1053F20F09450F8F4A0
:100DC00090E01DC093959237D0F0C09A90E017C084
:100DD00035FC13C00091AF001091B00021E0023C3F
:100DE000120758F021E00A3E120720F0915038F423
:100DF00090E005C09395923710F0C09890E09FA7BF
:100E000008950BE007BB0EE308BB00E004BB0CE059
:100E100005BB00E001BB0CEC02BB04E00EBF0FE51C
:100E20000DBFD0E0C0E6B1E0A0E0F0E0E0E6D19395
:100E3000F230E8F3D0E0C0E6B1E0A0E0332444248F
:100E4000B6DD42DA71DBECD88D9895988C98949841
:100E500000E005BD09B7006809BF0CEE0A8B04E08D
:100E60000B8B0FE00C8B55246624A0E60BE40D934E
:100E7000DD930D93DD9318E804EEAAE40D931D9322
:100E80001DE703E5ACE40D931D930AE00A8F0DE224
:100E90000EA7789400E20093AA0002E40093A90050
:100EA00008B700FD44CBAC811D81A11769F05D9BA3
:100EB0000DC00D91A11709F40F810CB9AC831F81EE
:100EC000100F1F835E9A02C05F99BEC830FC02C03B
:100ED000369B11CA0C89052909F4BDCA31FCCFDD46
:020EE000DFCF62
:00000001FF
